S00D000066696E616C2E737265630D
S11300000C942A000C943C000C943C000C943C008E
S11300100C943C000C943C000C943C000C943C006C
S11300200C943C000C943C000C943C000C943C005C
S11300300C943C000C943C000C943C000C943C004C
S11300400C943C000C943C000C943C000C943C003C
S11300500C943C0011241FBECFE5D8E0DEBFCDBF19
S113006020E0A0E6B0E001C01D92A736B207E1F798
S11300700E94C1010C944B020C9400000E94EC01FC
S113008060E670E080EF90E10E94FF000E94400271
S11300900E94660108950F931F93CF93DF931F92DD
S11300A0CDB7DEB781E08983809160000E9446026B
S11300B080916000882349F100E010E0BE016F5F89
S11300C07F4FC8010E94FF002FE788E391E0215091
S11300D080409040E1F700C0000089810E94460200
S11300E00F5F1F4F2FE788E391E02150804090403D
S11300F0E1F700C000002091600030E0220F331FC0
S1130100220F331F02171307C8F20F90DF91CF910C
S11301101F910F9108950F931F93CF93DF93C09175
S11301206000D0E0CC0FDD1FCC0FDD1F8E010C5F13
S11301301F4F81E00E944602682FCE010E94CB002F
S11301408FE097E20197F1F700C000002196C017F5
S1130150D10779F7609160006F5F6093600080EF72
S113016090E10E94CB008FE097E20197F1F700C085
S11301700000DF91CF911F910F91089584EA86BF0B
S113018006B607FEFDCF089583B984E886BF06B698
S113019007FEFDCF0895CF93DF93C82FD62F0E947B
S11301A0BE0091B1987F9830C9F480EA0E94C400DF
S11301B081B1887F8831A1F48C2F0E94C40081B161
S11301C0887F883279F48D2F0E94C40081B1887FA2
S11301D0883251F484E986BF81E007C080E005C01D
S11301E080E003C080E001C080E0DF91CF910895FA
S11301F084E886BF06B607FEFDCF83B108950F934A
S11302001F93CF93C82F8B010E94BE0091B1987F9A
S1130210983039F580EA0E94C40081B1887F883122
S113022011F58C2F0E94C40081B1887F8832E9F4D3
S11302300E94BE0081B1887F8031C9F481EA0E94A6
S1130240C40081B1887F8034A1F40E94F800F801D1
S1130250808381B1887F883571F484E986BF81E029
S11302600BC080E009C080E007C080E005C080E0EA
S113027003C080E001C080E0CF911F910F910895E9
S1130280DF98DE98DD98DC9888230CF4DF9A86FDED
S1130290DE9A85FDDD9A84FDDC9AC39A8AE18A950B
S11302A0F1F700C0C3988AE18A95F1F700C0089578
S11302B0CF93C82FC198C398C2980E9440018C2F35
S11302C08295807F0E944001CF910895D79AD69A53
S11302D0D59AD49ABB9AB99ABA9A2FEF80E792E04A
S11302E0215080409040E1F700C00000C198C398BD
S11302F0C29880E30E9440018FE19EE40197F1F7E8
S113030000C0000080E30E9440018FE891E0019763
S1130310F1F700C0000080E30E9440018FE891E003
S11303200197F1F700C0000088E20E94400195EDBA
S11303309A95F1F7000088E20E94580125ED2A956C
S1130340F1F7000088E00E94580185ED8A95F1F7E5
S1130350000081E00E9458018FE39FE10197F1F7CB
S113036000C0000086E00E94580195ED9A95F1F7CF
S113037000008CE00E94580125ED2A95F1F7000059
S113038008950E943E000E944B002FEF80E792E008
S1130390215080409040E1F700C0000084E0809349
S11303A063008EE180936600109262000E940A024C
S11303B088E30E944602853051F40E942102809114
S11303C063000E944602809166000E9446028230C9
S11303D079F70E948B00ECCF11B880E280B984E0F9
S11303E086BF089584EA86BF06B607FEFDCF08954A
S11303F083B984E886BF06B607FEFDCF089520E4DE
S1130400829FC0011124846886BF06B607FEFDCF13
S113041083B108950E94F20180ED0E94F80180E00A
S11304200E94F801809162000E94F80180916600A8
S11304300E94F801809163000E94F80184E986BF5C
S113044008950E94F20180ED0E94F80180E00E946C
S1130450F8010E94F20181ED0E94F80181E00E94FE
S1130460FF018093620081E00E94FF018093660097
S113047080E00E94FF018093630084E986BF0895B1
S11304806E9A6C98BD98BF98BE9A08958FB9779B61
S10D0490FECF8FB10895F894FFCF5A
S9030000FC
